S00C0000746573742E7372656358
S11300000C942A000C9447000C9447000C9447006D
S11300100C9447000C9447000C9447000C94470040
S11300200C9447000C9447000C945E030C941A0340
S11300300C9447000C9447000C9447000C94470020
S11300400C9447000C9447000C9447000C94470010
S11300500C94470011241FBECFE5D8E0DEBFCDBF0E
S113006010E0A0E6B0E0E2EDFBE002C005900D92E6
S1130070A836B107D9F720E0A8E6B0E001C01D9288
S1130080A837B207E1F70E9471020C94E7050C94BB
S113009000003E9A3F983D98389839983A983B9892
S11300A03C98309A319A329A3398359A80B78F7D3A
S11300B080BF80B78F7B80BF80B78F7780BF379A30
S11300C0369A0895CF93DF93EC01349BFECF64B14D
S11300D075B180E090E00E94B004688379838A83DC
S11300E09B83DF91CF910895442379F1413009F046
S11300F05FC0813079F028F08230A9F08330E1F0DC
S113010008952AB381E090E001C0880F6A95EAF768
S1130110822B2CC027B381E090E001C0880F6A9540
S1130120EAF7822B2EC024B381E090E001C0880F4F
S11301306A95EAF7822B30C021B381E090E001C0D8
S1130140880F6A95EAF7822B32C0813089F028F053
S11301508230C9F0833011F108952AB381E090E030
S113016001C0880F6A95EAF7809582238ABB0895B7
S113017027B381E090E001C0880F6A95EAF7809583
S1130180822387BB089524B381E090E001C0880FE7
S11301906A95EAF78095822384BB089521B381E0B0
S11301A090E001C0880F6A95EAF78095822381BBAD
S11301B00895442379F1413009F05FC0813079F02A
S11301C028F08230A9F08330E1F008952BB381E068
S11301D090E001C0880F6A95EAF7822B2CC028B3FF
S11301E081E090E001C0880F6A95EAF7822B2EC067
S11301F025B381E090E001C0880F6A95EAF7822B6D
S113020030C022B381E090E001C0880F6A95EAF71C
S1130210822B32C0813089F028F08230C9F08330DB
S113022011F108952BB381E090E001C0880F6A9525
S1130230EAF7809582238BBB089528B381E090E090
S113024001C0880F6A95EAF78095822388BB0895D8
S113025025B381E090E001C0880F6A95EAF78095A4
S1130260822385BB089522B381E090E001C0880F0A
S11302706A95EAF78095822382BB0895CF93C82FAD
S113028040E061E081E00E94D90040E062E081E06A
S11302900E94D90040E063E081E00E94D9008BB362
S11302A09C2F907F8F70892B8BBB41E063E081E0B2
S11302B00E94D9008FE99FE00197F1F700C0000088
S11302C040E063E081E00E94D9002BB330E1C39F9A
S11302D0C0011124922F9F70892B8BBB41E063E0F6
S11302E081E00E94D9008FE99FE00197F1F700C0F7
S11302F0000040E063E081E00E94D9008FE19EE4C9
S11303000197F1F700C00000CF91089541E061E04A
S113031081E00E94740041E062E081E00E94740088
S113032041E063E081E00E94740041E064E080E029
S11303300E94740041E065E080E00E94740041E0A6
S113034066E080E00E94740041E067E080E00E9483
S113035074002FEF81EE94E0215080409040E1F74B
S113036000C0000083E30E943E0182E30E943E013C
S113037088E20E943E018CE00E943E0181E00E94DE
S11303803E0186E00E943E0182E00C943E01CF9340
S1130390C82F41E061E081E00E94D90040E062E0C2
S11303A081E00E94D90040E063E081E00E94D9002E
S11303B08C2F807F8BBB41E063E081E00E94D900F9
S11303C08FE99FE00197F1F700C0000040E063E08F
S11303D081E00E94D900C295C07FCBBB41E063E0BD
S11303E081E00E94D9008FE99FE00197F1F700C0F6
S11303F0000040E063E081E00E94D9008FE19EE4C8
S11304000197F1F700C00000CF9108950F931F9357
S1130410CF938C01C0E0F801EC0FF11D808188239B
S113042021F00E94C701CF5FF6CFCF911F910F91AA
S1130430089581E00C943E014F925F926F927F92F7
S11304408F929F92AF92BF92CF92DF92EF92FF92E0
S11304504B015C0161E070E080E090E03AE0432E03
S1130460512C612C712C81149104A104B104A9F0C4
S1130470AAE0B0E09B01AC010E94CD056B017C01B8
S1130480C501B401A30192010E94AB056C0D7D1D51
S11304908E1D9F1D49015A01E6CF2AE0C22ED12CA0
S11304A0E12CF12C623071058105910568F0A701FA
S11304B096010E94AB0549015A0180E3860F0E9410
S11304C0C701B401C501EECFFF90EF90DF90CF904C
S11304D0BF90AF909F908F907F906F905F904F9060
S11304E008950E94860140E060E080E00E9474006C
S11304F041E065E083E00E9474000E9449000E948C
S1130500D5020E94E80288E690E00E94620020E0A2
S113051030E044E353E46091680070916900809195
S11305206A0090916B000E943E0520E030EC4FE79A
S113053054E40E940F040E94C50280E690E00E94E9
S1130540060220E030E044E353E4609168007091D7
S1130550690080916A0090916B000E943E0520E042
S113056030EC4FE754E40E940F040E9481040E947F
S11305701C022FEF89E698E1215080409040E1F77A
S113058000C000000E941902BECF20E030E040E12C
S113059052E40E940F0420E030E040EA50E40E945C
S11305A0A30342EE54E00C94F2028FB58E7F8FBD0C
S11305B08FB582608FBD8EB588608EBD8EB580612B
S11305C08EBD8FB580688FBD8FB58F7B8FBD08952D
S11305D08EB58E7F8EBD8EB58D7F8EBD8EB58460BB
S11305E08EBD0895CF92DF92EF92FF926B017C0152
S11305F057BD46BDBA016F5F7F4F80E090E00E9417
S1130600B004A70196010E943E0520E030E048ECCA
S113061052E40E940F0420E030E040E85FE30E94CF
S1130620A2030E9481047BBD6ABDFF90EF90DF901E
S1130630CF9008951F920F920FB60F9211242F930B
S11306403F934F935F936F937F938F939F93AF9356
S1130650BF93EF93FF9380916E008F5F80936E0042
S113066080916E0090E0A0E0B0E040917400509161
S11306707500609176007091770084179507A6073E
S1130680B70759F4E0916C00F0916D0009958091E1
S11306906F0082BF10926E00E3CFFF91EF91BF9184
S11306A0AF919F918F917F916F915F914F913F9106
S11306B02F910F900FBE0F901F9018951F920F92BD
S11306C00FB60F9211242F933F934F935F936F9321
S11306D07F938F939F93AF93BF93EF93FF938091F7
S11306E06E008F5F80936E0080916E0090E0A0E0BA
S11306F0B0E040917000509171006091720070916F
S1130700730084179507A607B70759F4E0916C00A6
S1130710F0916D00099580916F008CBF10926E006E
S1130720E3CFFF91EF91BF91AF919F918F917F9113
S11307306F915F914F913F912F910F900FBE0F904A
S11307401F9018955058BB27AA270E94BA030C94EF
S113075004050E94F60438F00E94FD0420F039F4E8
S11307609F3F19F426F40C94F3040EF4E095E7FB90
S11307700C94ED04E92F0E94150558F3BA1762078B
S113078073078407950720F079F4A6F50C943705D0
S11307900EF4E0950B2EBA2FA02D0B01B901900198
S11307A00C01CA01A0011124FF27591B99F0593FDC
S11307B050F4503E68F11A16F040A22F232F342F24
S11307C04427585FF3CF469537952795A795F04072
S11307D05395C9F77EF41F16BA0B620B730B840B87
S11307E0BAF09150A1F0FF0FBB1F661F771F881F3F
S11307F0C2F70EC0BA0F621F731F841F48F4879597
S113080077956795B795F7959E3F08F0B0CF939588
S1130810880F08F09927EE0F9795879508950E9401
S113082023040C9404050E94FD0458F00E94F6046D
S113083040F029F45F3F29F00C94ED0451110C941D
S113084038050C94F3040E94150568F39923B1F359
S1130850552391F3951B550BBB27AA2762177307E2
S1130860840738F09F5F5F4F220F331F441FAA1F76
S1130870A9F335D00E2E3AF0E0E832D09150504032
S1130880E695001CCAF72BD0FE2F29D0660F771FE0
S1130890881FBB1F261737074807AB07B0E809F0C6
S11308A0BB0B802DBF01FF2793585F4F3AF09E3F4B
S11308B0510578F00C94ED040C9438055F3FE4F393
S11308C0983ED4F3869577956795B795F7959F5F8E
S11308D0C9F7880F911D9695879597F90895E1E0DA
S11308E0660F771F881FBB1F621773078407BA0739
S11308F020F0621B730B840BBA0BEE1F88F7E09594
S113090008950E941D0588F09F5798F0B92F9927E4
S1130910B751B0F0E1F0660F771F881F991F1AF0E6
S1130920BA95C9F714C0B13091F00E943705B1E00F
S113093008950C943705672F782F8827B85F39F00E
S1130940B93FCCF3869577956795B395D9F73EF47F
S113095090958095709561957F4F8F4F9F4F089527
S1130960E89409C097FB3EF4909580957095619545
S11309707F4F8F4F9F4F9923A9F0F92F96E9BB27FB
S11309809395F695879577956795B795F111F8CF77
S1130990FAF4BB0F11F460FF1BC06F5F7F4F8F4FE2
S11309A09F4F16C0882311F096E911C0772321F0D8
S11309B09EE8872F762F05C0662371F096E8862F70
S11309C070E060E02AF09A95660F771F881FDAF7C7
S11309D0880F9695879597F9089597F99F6780E80A
S11309E070E060E008959FEF80EC089500240A947D
S11309F01616170618060906089500240A941216F6
S1130A001306140605060895092E0394000C11F428
S1130A10882352F0BB0F40F4BF2B11F460FF04C0D5
S1130A206F5F7F4F8F4F9F4F089557FD9058440F2E
S1130A30551F59F05F3F71F04795880F97FB991F39
S1130A4061F09F3F79F087950895121613061406F6
S1130A50551FF2CF4695F1DF08C016161706180683
S1130A60991FF1CF86957105610508940895E8945E
S1130A70BB2766277727CB0197F908950E94510574
S1130A800C9404050E94F60438F00E94FD0420F042
S1130A90952311F00C94ED040C94F30411240C949C
S1130AA038050E94150570F3959FC1F3950F50E02A
S1130AB0551F629FF001729FBB27F00DB11D639F0C
S1130AC0AA27F00DB11DAA1F649F6627B00DA11DB2
S1130AD0661F829F2227B00DA11D621F739FB00D58
S1130AE0A11D621F839FA00D611D221F749F3327C8
S1130AF0A00D611D231F849F600D211D822F762F61
S1130B006A2F11249F5750409AF0F1F088234AF03D
S1130B10EE0FFF1FBB1F661F771F881F91505040A9
S1130B20A9F79E3F510580F00C94ED040C94380510
S1130B305F3FE4F3983ED4F3869577956795B79530
S1130B40F795E7959F5FC1F7FE2B880F911D96954A
S1130B50879597F90895A1E21A2EAA1BBB1BFD01E4
S1130B600DC0AA1FBB1FEE1FFF1FA217B307E40788
S1130B70F50720F0A21BB30BE40BF50B661F771FE0
S1130B80881F991F1A9469F76095709580959095C0
S1130B909B01AC01BD01CF0108950E94D805A59F1A
S1130BA0900DB49F900DA49F800D911D1124089564
S1130BB0A29FB001B39FC001A39F700D811D11249A
S1130BC0911DB29F700D811D1124911D0895F894FB
S1050BD0FFCF51
S10B0BD24465677265653A0091
S9030000FC
