:100000000C942A000C943C000C943C000C943C0092
:100010000C943C000C943C000C943C000C943C0070
:100020000C943C000C943C000C9421010C94CC00EA
:100030000C943C000C943C000C943C000C943C0050
:100040000C943C000C943C000C943C000C943C0040
:100050000C943C0011241FBECFE5D8E0DEBFCDBF1D
:1000600020E0A0E6B0E001C01D92AE36B207E1F795
:100070000E945F000C947F030C9400003E9A3F980E
:100080003D98389A39983A983B983C98309A319AEA
:10009000329A3398359A80B78F7D80BF80B78F7B37
:1000A00080BF80B78F7780BF379A369A0895349B88
:1000B000FECF24B135B1FC01318320830895D1985E
:1000C0008D9A0E943E000E9487000E949A0083E65B
:1000D00090E00E945700609163007091640080E09E
:1000E00090E00E9484020E947600F1CF20E030E090
:1000F00040E152E40E94E30120E030E040EA50E4B5
:100100000E94770142EE54E00E94A40008958FB54A
:100110008E7F8FBD8FB582608FBD8EB588608EBD9E
:100120008EB580618EBD8FB580688FBD8FB58F7B9A
:100130008FBD08958EB58E7F8EBD8EB58D7F8EBDA1
:100140008EB584608EBD0895CF92DF92EF92FF92BC
:100150006B017C0157BD46BDBA016F5F7F4F80E0E8
:1001600090E00E948402A70196010E94120320E001
:1001700030E048EC52E40E94E30120E030E040E847
:100180005FE30E9476010E9455027BBD6ABDFF902D
:10019000EF90DF90CF9008951F920F920FB60F92BD
:1001A00011242F933F934F935F936F937F938F937C
:1001B0009F93AF93BF93EF93FF93809162008F5F04
:1001C000809362008091620090E0A0E0B0E04091F6
:1001D0006A0050916B0060916C0070916D00841703
:1001E0009507A607B707E1F4E0916000F091610080
:1001F00009958091650082BF109262008091620033
:1002000090E0A0E0B0E040916A0050916B006091F6
:100210006C0070916D0084179507A607B70721F34E
:10022000FF91EF91BF91AF919F918F917F916F91CE
:100230005F914F913F912F910F900FBE0F901F90A4
:1002400018951F920F920FB60F9211242F933F9380
:100250004F935F936F937F938F939F93AF93BF93CE
:10026000EF93FF93809162008F5F80936200809193
:10027000620090E0A0E0B0E040916600509167001D
:10028000609168007091690084179507A607B70709
:10029000E1F4E0916000F0916100099580916500C2
:1002A0008CBF109262008091620090E0A0E0B0E00C
:1002B00040916600509167006091680070916900FC
:1002C00084179507A607B70721F3FF91EF91BF9118
:1002D000AF919F918F917F916F915F914F913F91DE
:1002E0002F910F900FBE0F901F9018955058BB275D
:1002F000AA270E948E010C94D8020E94CA0238F0EC
:100300000E94D10220F039F49F3F19F426F40C9496
:10031000C7020EF4E095E7FB0C94C102E92F0E949E
:10032000E90258F3BA17620773078407950720F0AC
:1003300079F4A6F50C940B030EF4E0950B2EBA2F6E
:10034000A02D0B01B90190010C01CA01A0011124DB
:10035000FF27591B99F0593F50F4503E68F11A1687
:10036000F040A22F232F342F4427585FF3CF469518
:1003700037952795A795F0405395C9F77EF41F163A
:10038000BA0B620B730B840BBAF09150A1F0FF0F04
:10039000BB1F661F771F881FC2F70EC0BA0F621FF0
:1003A000731F841F48F4879577956795B795F795E0
:1003B0009E3F08F0B0CF9395880F08F09927EE0F75
:1003C0009795879508950E94F7010C94D8020E9492
:1003D000D10258F00E94CA0240F029F45F3F29F090
:1003E0000C94C10251110C940C030C94C7020E948E
:1003F000E90268F39923B1F3552391F3951B550B4B
:10040000BB27AA2762177307840738F09F5F5F4FE7
:10041000220F331F441FAA1FA9F335D00E2E3AF026
:10042000E0E832D091505040E695001CCAF72BD03E
:10043000FE2F29D0660F771F881FBB1F261737078F
:100440004807AB07B0E809F0BB0B802DBF01FF27C1
:1004500093585F4F3AF09E3F510578F00C94C102DB
:100460000C940C035F3FE4F3983ED4F386957795A4
:100470006795B795F7959F5FC9F7880F911D96957A
:10048000879597F90895E1E0660F771F881FBB1FD6
:10049000621773078407BA0720F0621B730B840B83
:1004A000BA0BEE1F88F7E09508950E94F10288F0DC
:1004B0009F5798F0B92F9927B751B0F0E1F0660F28
:1004C000771F881F991F1AF0BA95C9F714C0B13069
:1004D00091F00E940B03B1E008950C940B03672F79
:1004E000782F8827B85F39F0B93FCCF38695779598
:1004F0006795B395D9F73EF4909580957095619581
:100500007F4F8F4F9F4F0895E89409C097FB3EF4AB
:1005100090958095709561957F4F8F4F9F4F992350
:10052000A9F0F92F96E9BB279395F69587957795CE
:100530006795B795F111F8CFFAF4BB0F11F460FF8E
:100540001BC06F5F7F4F8F4F9F4F16C0882311F0E6
:1005500096E911C0772321F09EE8872F762F05C0FA
:10056000662371F096E8862F70E060E02AF09A9595
:10057000660F771F881FDAF7880F9695879597F98A
:10058000089597F99F6780E870E060E008959FEF15
:1005900080EC089500240A9416161706180609061A
:1005A000089500240A9412161306140605060895E9
:1005B000092E0394000C11F4882352F0BB0F40F471
:1005C000BF2B11F460FF04C06F5F7F4F8F4F9F4FB1
:1005D000089557FD9058440F551F59F05F3F71F033
:1005E0004795880F97FB991F61F09F3F79F087959A
:1005F0000895121613061406551FF2CF4695F1DF23
:1006000008C0161617061806991FF1CF86957105B2
:10061000610508940895E894BB2766277727CB01E6
:1006200097F908950E9425030C94D8020E94CA02EB
:1006300038F00E94D10220F0952311F00C94C102F1
:100640000C94C70211240C940C030E94E90270F36D
:10065000959FC1F3950F50E0551F629FF001729F67
:10066000BB27F00DB11D639FAA27F00DB11DAA1F76
:10067000649F6627B00DA11D661F829F2227B00DC3
:10068000A11D621F739FB00DA11D621F839FA00D4E
:10069000611D221F749F3327A00D611D231F849F9E
:1006A000600D211D822F762F6A2F11249F575040F5
:1006B0009AF0F1F088234AF0EE0FFF1FBB1F661F70
:1006C000771F881F91505040A9F79E3F510580F039
:1006D0000C94C1020C940C035F3FE4F3983ED4F3F6
:1006E000869577956795B795F795E7959F5FC1F7DD
:1006F000FE2B880F911D9695879597F90895F8948C
:02070000FFCF29
:00000001FF
